:020000040800F2
:10000000005000203D1400084D1400084D14000855
:100010004D1400084D1400084D14000800000000A5
:100020000000000000000000000000004D14000867
:100030004D140008000000004D1400084D14000885
:100040004D1400084D1400084D1400084D1400080C
:100050004D1400084D1400084D1400084D140008FC
:100060004D1400084D1400084D1400084D140008EC
:100070004D1400084D1400084D1400084D140008DC
:100080004D1400084D1400084D1400084D140008CC
:100090004D1400084D1400084D1400084D140008BC
:1000A0004D1400084D1400084D1400084D140008AC
:1000B0004D1400084D1400084D1400084D1400089C
:1000C0004D1400084D1400084D1400084D1400088C
:1000D0004D1400084D1400084D1400084D1400087C
:1000E0004D1400084D1400084D1400084D1400086C
:1000F0004D1400084D1400084D1400084D1400085C
:100100004D1400084D1400084D1400084D1400084B
:100110004D1400084D1400084D1400084D1400083B
:100120004D1400084D1400084D1400084D1400082B
:1001300003685A004CBF43F0004323F000431844C7
:10014000704700BF2DE9F84339B34F1E04461546EA
:100150003E464FF0000808EB060101EBD171491053
:1001600004EBC1094846FFF7E3FF0346C800083027
:100170008F4220440BD0AB420BD8FFF7D9FF013898
:10018000A84201F10108E6D34846BDE8F883AB4236
:10019000FAD9884501D04E1EDDE74FF000094846E8
:1001A000BDE8F883012807D0022807D0044B0028B7
:1001B0000CBF18460020704702487047024870473D
:1001C00095080008990800089D08000830B5244BE0
:1001D000044683B08D1E3BB3284601A9AFF30080CF
:1001E000E8B101992A46FFF7ADFF0146B8B1FFF724
:1001F0009FFF4B68A064012B2ED0002B27DB081D2E
:10020000FFF796FF0023C4E913030368002B12DBFA
:10021000FFF78EFF03460020236103B030BD0023AB
:100220000920236103B030BD0E4B0F491846C91A8F
:10023000C9100191D6E7C3F30360FFF7B3FF0028AD
:10024000034614BF00200920236103B030BD012301
:10025000081DC4E91303D8E7002305202361DCE768
:10026000000000004C16000824170008036810B5B1
:10027000DA07044606D49B0700F1480009D500F0D0
:100280005DFC2368590709D51A070ED5DB0613D57F
:1002900010BD00F04BFC23685907F5D404F1D000E1
:1002A00000F054FC23681A07F0D404F5A87000F09D
:1002B00055FC2368DB06EBD404F5E870BDE810407C
:1002C00000F090BC092070470346006800B1184454
:1002D000704700BF704700BF70B504460E46204609
:1002E000316CFFF773FF054698B9D6F840C0324627
:1002F000214601202369C4F814C098470828EED08D
:10030000072806D12846316CFFF7E4FF301D00F0C6
:1003100001FC01F0B5F800BF2DE9F0474FF0000AED
:10032000ADF5727D0DF10C0E01F1040CC768D0F82B
:10033000188006461446BCE80F00AEE80F00BCE883
:100340000F00AEE80F00BCE80F00AEE80F009CE81D
:100350000F0002AD8EE80F00C5F800A021E02B6C65
:100360004FF4F072294673617AA800F06FFE3146AF
:10037000504633697AAA9847889C82466C64334613
:10038000324649460120CDE90058B8470446F0B945
:100390004FF4F07228467AA900F058FEBAF1080F1F
:1003A0001BD13046296CFFF711FF04F109095FFAF0
:1003B00089FA04460028D2D0A96B334669643246D4
:1003C0000120CDE900584AF01001B84700B10924D6
:1003D00020460DF5727DBDE8F087BAF1070FF6D122
:1003E0002046296CFFF776FF03A800F093FB00BFBF
:1003F000406C7047F0B54FF0FF37CB6BF9B00B6432
:1004000001AC01F1040C0E460546BCE80F000FC418
:10041000BCE80F000FC4BCE80F000FC49CE80F003D
:1004200084E80F00009706E06A4629462B69984742
:100430000828044608D128461099FFF7C7FE00286F
:10044000F2D0092079B0F0BD6846FFF70FFF062C07
:10045000F7D131462846FFF73FFF00BF10B41446DE
:100460008461DC6BC16000221C64194610BC53E738
:1004700070B54369C6680B64AEB90A4603690446A1
:100480000D46014602209847072805D008280FD1BD
:1004900029462046FFF720FF3046296CFFF71AFF58
:1004A000281D00F037FB0122FFF736FF00F0E8FFC0
:1004B00000F0E6FFC2682AB1D1F83CC00022C1F8C2
:1004C00040C029E796E700BF704700BF8368014638
:1004D0000BB1012018477047012912D009D873B910
:1004E0000F2A0CD800EB820042681846009B1A6065
:1004F00070470339012994BF012002207047022070
:1005000070470846704700BF002300B585B00A4613
:1005100003A900911946FFF7DFFF039805B05DF8C6
:1005200004FB00BF012912D009D873B90F2A0CD8D7
:10053000009900EB82020968184651607047033940
:10054000012994BF0120022070470220704708460D
:10055000704700BF002310B584B003AC0392009431
:100560000A461946FFF7DEFF04B010BD70B54FF024
:10057000FF36D36BADF50E7D13640DF15C0E02F109
:10058000040C05460C46BCE80F00AEE80F00BCE8C2
:100590000F00AEE80F00BCE80F00AEE80F009CE8CB
:1005A0000F008EE80F00169612E00C2116A86A467E
:1005B000FFF7D0FF214616A8A84778B9694608205A
:1005C000049B16AA98470528064608D0092805D096
:1005D00068462699FFF7FAFD0028E6D0092616A8F6
:1005E000FFF744FE30460DF50E7D70BD2DE9F04F4E
:1005F0001E46CC6C89B054F8043B0D46174600F0FB
:1006000003080694002E79D002228DF81C201A0CC3
:100610008DF81D201B04D2B2059304EB82042B6DD0
:10062000B8F1020F08BFAC6B13F001030CD03846D1
:1006300005A900F071FB18B9082009B0BDE8F08FDA
:10064000092009B0BDE8F08FD4F800A0BAF1000F7E
:10065000EDD0019300F008030293022E4AD0B4F8C3
:1006600000A0B4F802900434AA6C0F21384629F097
:10067000010B9344FFF748FF834539D82AF0010264
:100680005A44824294BF002001204FEA490303F0FC
:1006900002030AF0010A43EA0A03012B49D0022BA4
:1006A00032D0002BCCD1B8F1000F02D0002840F09E
:1006B000CE800434D4F800A0BAF1000FCDD1384672
:1006C00005A900F029FB0028BAD1019B002BB3D06B
:1006D0000F213846FFF718FF0E2102463846FFF774
:1006E00039FF38460F216A4AFFF734FF0720A8E791
:1006F0000020CAE7D4F804900834B5E71B0205933C
:100700000323ADF81C308AE7236823F0004BB8F1CF
:10071000000F45D128B1029A002A5CD0BBF1000F2E
:1007200074D0002B00DA04340BF1010B04EB8B04C2
:10073000C0E7B8F1000F19D1B0B163682268991C05
:100740004FEAD2723FF47CAF05F1580101330491B6
:1007500000F09180201DFFF7B7FD04AB014628464D
:10076000AFF3008000285CD10834A3E70D213846A0
:10077000D5F82090FFF7C8FE8145F5D1AB6A9C42C1
:10078000F2D12046FFF7D4FC0F2102463846FFF78E
:10079000E1FE38462A460021FFF7DCFE072050E73D
:1007A0000D213846D5F82090FFF7AEFE814501D0E7
:1007B0002368B6E7AB6A9C42FAD104230022C5E95C
:1007C0000B23E318C5F828B06B632368002B5ADBB2
:1007D00001230193A8E705F15803CDF80C80914659
:1007E000B04604F1040A1E460EE050460496FFF798
:1007F0006BFD0022014604AB284609F101090AF10C
:10080000040AAFF30080E8B9D945EED10D2138468E
:10081000FFF77AFE0346049A0620C5E909242B62F5
:100820000FE781460D213846FFF76EFEB9F1020F42
:10083000286225D12B46049A43F82C2F6B620620A0
:10084000AC62FEE646462368DDF80C8069E7204688
:10085000FFF76EFC02460434AC6328461446AFF33F
:10086000008000283FF4ECAE384622460F21FFF707
:1008700071FE0720E5E60D213846FFF745FE2862A8
:10088000049B6B62DBE70BF1010004EB800079E76E
:10089000000000000023A9E60123A7E60223A5E645
:1008A0002DE9F043064615461C46C3B0042900F264
:1008B000B880DFE801F09C56B62D0300002C40F014
:1008C000B080102A00F2AD800368D80600F1F180F4
:1008D00020AF384600F090F9012438460023B16B70
:1008E00004FA03F22A4203F1010305D00A4652F842
:1008F00004CB1146C0F800C0042B00F10400EFD176
:100900003846B16300F06EF9002043B0BDE8F083D3
:10091000032C40F0868094B204EB1243102B4FEA74
:1009200012457ED803681F0700F1CB8020AF384600
:1009300000F036F9B26B07EBC50154B10B4601EB81
:10094000C401D01AE4001D5843F8045B8B42FAD16D
:1009500022443846B26300F001F9002043B0BDE8FC
:10096000F083012C4FEA124895B256D0052C58D18D
:1009700008EB0509B9F1200F53D8B8F10F0F73D95F
:10098000A946002D40F08480B36B65B320AF4FF0D3
:10099000000907EBC807043F03EBC50553F8041B28
:1009A000AB4247F8041FF9D1B9F1000F0FD06F46E1
:1009B0004146102938BF102107EBC101843903EBF0
:1009C000C90553F8040BAB4241F8040FF9D1012CCF
:1009D0007FD0B8F10F0FB56342D9B9F1000F02D043
:1009E000684600F0B3F8002043B0BDE8F083C4B916
:1009F00023460124826B371DA8B204FA03F1014299
:100A00001CBF52F8041B47F823100133102BF4D1FC
:100A100015F40050E7D1B26304E008EB0503102B96
:100A200003D9022043B0BDE8F083B8F10F0FF8D826
:100A30003368DA0706D5304623F0030340F8483B15
:100A400000F078F820AF384600F074F8B36B002D52
:100A50009DD11D4604353846B56300F067F8C2E7FE
:100A600020A800F06BF8B8E7B9F1100F3FD9A9F151
:100A700010093368D90708D5304623F0010343F045
:100A8000020340F8483B00F05DF8B9F1000F31D0A7
:100A900033685A071FD4B8F10F0F24D96F46C8F135
:100AA0001005384600F056F8002DB36B80DD20AFFE
:100AB0006FE723F01003336006F5E87000F09CF850
:100AC00006E723F00803036000F5A87000F068F85B
:100AD0002CE720AFBEE7304623F0040340F8D03BBC
:100AE00000F038F8D7E720A800F02CF8D6E74FF050
:100AF0000009BEE7B8F10F0F3FF646AF20AF38460A
:100B000000F020F8B36B002D7FF441AF384600F0C1
:100B100015F868E700F1340191E838009C46A646D4
:100B20004CF8045D90E8FF0FE54600BD90EC210B0A
:100B3000704700BF80EC210B704700BF90EC200B8A
:100B4000704700BF80EC200B704700BFD0EC200B3B
:100B5000704700BFC0EC200B704700BFF0EC0201F3
:100B6000F0EC0211F0EC0221F0EC0231F0EC024169
:100B7000F0EC0251F0EC0261F0EC0271F0EC028159
:100B8000F0EC0291F0EC02A1F0EC02B1F0EC02C149
:100B9000F0EC02D1F0EC02E1F0EC02F1704700BFA2
:100BA000E0EC0201E0EC0211E0EC0221E0EC0231A9
:100BB000E0EC0241E0EC0251E0EC0261E0EC027199
:100BC000E0EC0281E0EC0291E0EC02A1E0EC02B189
:100BD000E0EC02C1E0EC02D1E0EC02E1E0EC02F179
:100BE000704700BFB0FC0181B0FC0191B0FC01A1D5
:100BF000B0FC01B1704700BFA0FC0181A0FC0191D5
:100C0000A0FC01A1A0FC01B1704700BFEC4600B5FB
:100C10002DE900502DE9FF1F4FF000032DE90C00D6
:100C200001A9FFF7E7FBDDF840E012B0704700BF15
:100C3000EC4600B52DE900502DE9FF1F4FF00003F1
:100C40002DE90C0001A9FFF713FCDDF840E012B01C
:100C5000704700BFEC4600B52DE900502DE9FF1F9D
:100C60004FF000032DE90C0001A9FFF723FCDDF88C
:100C700040E012B0704700BFEC4600B52DE90050CF
:100C80002DE9FF1F4FF000032DE90C0001ABFFF72A
:100C9000E5FBDDF840E012B0704700BFEC4600B560
:100CA0002DE900502DE9FF1F4FF000032DE90C0046
:100CB00001AAFFF75BFCDDF840E012B0704700BF0F
:100CC000027A03467AB9427AA2B14FF0030C416826
:100CD000013A427208680A1D5A60020283F808C08D
:100CE000000E1A6070470068013A1A7202021A6018
:100CF000000E7047B0207047002300B585B003A9EF
:100D000000910C221946FFF7E7FB039805B05DF848
:100D100004FB00BFF0E700BF2DE9F0434FF00008EF
:100D200005460E4685B03046FFF7CAFFB028044698
:100D300000F0BA80070620D500F0F003802B4DD0DC
:100D4000902B36D0A02B60D0B02B73D0C02B00F0EE
:100D50008A8000F0F803D02B0BD100F0070201329B
:100D600005230121284642F40022FFF799FD0028BF
:100D7000D9D0092005B0BDE8F0838300DBB21F1D88
:100D800000230DF10C0919460D222846CDF80090DC
:100D9000FFF7A2FB039B60064CBFDF1BFF1800237D
:100DA0000D2228461946CDF800900397FFF7BAFBAD
:100DB000B9E700F00D030D2BDBD0002303AF19467C
:100DC00000F00F0200972846FFF786FB00230D2254
:100DD000284619460097FFF7A5FBA4E73046FFF722
:100DE0006FFF24022043B0F5004FC2D0002304015E
:100DF00019462846A2B2FFF753FD0028B9D114F4D2
:100E0000004F18BF4FF001088DE7C3434FF47F62D6
:100E100003F007031A410023010702F47F6248BF71
:100E200042F4804228461946FFF73AFD00283FF475
:100E30007AAF9EE7B1283CD0B22800F0B080B3284A
:100E40004AD000F0FC03B42B93D0012300F007023A
:100E50001A442846194642F40022FFF721FD0028D3
:100E60003FF461AF85E7C6284FD0C72861D000F0B6
:100E7000F803C02B70D0C8287CD0C9287FF479AF84
:100E80003046FFF71DFF05230246012128461403C3
:100E900002F00F0204F470240A442243FFF700FD1D
:100EA00000283FF440AF64E7B8F1000F1CD00020E9
:100EB00060E73046FFF704FF024600283FF459AFD1
:100EC00010F0F0037FF455AF19462846FFF7E8FC11
:100ED00000283FF428AF4CE73046FFF7F1FE01232E
:100EE000024619462846D2E703AC43460E22414645
:100EF00028460094FFF7F0FA43460F222846414661
:100F00000094FFF70FFB404634E73046FFF7D8FE6A
:100F100002460323140302F00F0204F4702401328A
:100F2000284619462243FFF7BBFC00283FF4FBAEDE
:100F30001FE73046FFF7C4FE024600283FF419AF12
:100F400010F0F0037FF415AF04212846FFF7A8FC4A
:100F500000283FF4E8AE0CE7032300F00F02013253
:100F60002846194642F42022FFF79AFC00283FF455
:100F7000DAAEFEE63046FFF7A3FE0246012102F09C
:100F8000F00402F00F0210340A440523284642EA16
:100F90000432FFF785FC00283FF4C5AEE9E60023E4
:100FA0000DF10C090D2219462846CDF80090FFF7E7
:100FB00093FA3046FFF784FE02064FF002040CD588
:100FC000039B00F07F00A040184403903046FFF7D9
:100FD00077FE030604F10704F2D4039B00F07F02BE
:100FE000A24003F501731A440023039228460D2200
:100FF0001946CDF80090FFF795FA94E60B464FF0AE
:10100000030C00B5C26C1846536885B008320292D2
:1010100001A91A0E1B028DF80CC001938DF80D204A
:10102000FFF77AFE05B05DF804FB00BF08B5FFF7D7
:1010300071FE806C08BD00BF08B5FFF76BFEC06C89
:10104000C379023300EB830008BD00BF844641EA48
:10105000000313F0030349D1403A23D30B68036024
:101060004B6843608B688360CB68C3600B69036126
:101070004B6943618B698361CB69C3610B6A03620E
:101080004B6A43628B6A8362CB6AC3620B6B0363F6
:101090004B6B43638B6B8363CB6BC36340304031DB
:1010A000403ADBD230320BD30B6803604B684360AD
:1010B0008B688360CB68C36010301031103AF3D274
:1010C0000C3205D351F8043B40F8043B043AF9D202
:1010D000043208D0D2071CBF11F8013B00F8013BD5
:1010E00001D30B8803806046704700BF082A13D3E2
:1010F0008B07B1D010F00303AED0C3F10403D21AB2
:10110000DB071CBF11F8013B00F8013BA4D331F809
:10111000023B20F8023B9FE7043AD9D3013A11F889
:10112000013B00F8013BF9D20B7803704B78437018
:101130008B7883706046704780B58AB000AF00F04E
:101140005AF907F10803184600F07EF807F1080382
:101150000221184600F088F807F10803184600F04D
:1011600050F907F1080302220121184600F0D2F8D5
:1011700007F108030121184600F024F900237B60E1
:101180007B68104A934294BF01230023DBB2002BFB
:1011900003D07B6801337B60F2E707F1080301218C
:1011A000184600F0F6F800233B603B68054A93427E
:1011B00094BF01230023DBB2002BD9D03B6801335D
:1011C0003B60F2E73F420F0080B483B000AF78602D
:1011D00039603A687B681A607B6818460C37BD46F0
:1011E00080BC704780B483B000AF786039607B68A2
:1011F0001B68196801223B689A407B681B680A4398
:101200001A6000BF0C37BD4680BC704780B487B001
:1012100000AFF860B9607A60FB681B681B687B618F
:10122000BB68DB437A6913407B617A68BB68134013
:101230007A6913437B61FB681B687A691A6000BF97
:101240001C37BD4680BC704780B582B000AF786067
:101250007B68184620231A46002100F019F97B68A4
:1012600018460837BD4680BDB0B483B000AF786083
:101270000B46FB70FB78022B1FD0FB78022B27D884
:10128000FB78002B03D0FB78012B0BD020E07B6890
:10129000124A1C4615460FCD0FC495E80F0084E88E
:1012A0000F0015E07B680E4A1C4615460FCD0FC493
:1012B00095E80F0084E80F000AE07B68094A1C46A5
:1012C00015460FCD0FC495E80F0084E80F0000BF4E
:1012D00000BF0C37BD46B0BC704700BFBC1500084E
:1012E000DC150008FC15000880B483B000AF7860FE
:1012F0007B681B6818460C37BD4680BC704780B4BD
:1013000083B000AF78607B681B6818460C37BD4619
:1013100080BC704780B588B000AF78600B46FB702A
:101320001346BB70FB78FB61FB6903F007039B006E
:10133000BB610F22BB6902FA03F37B61BA78BB6918
:1013400002FA03F33B61FB69072B0FD87B689A68AD
:1013500007F10C0311461846FFF736FF07F10C039F
:101360003A6979691846FFF751FF0EE07B68DA6841
:1013700007F1080311461846FFF726FF07F1080397
:101380003A6979691846FFF741FF00BF2037BD462B
:1013900080BD80B584B000AF78600B46FB707B6881
:1013A0009A6907F10C0311461846FFF70DFFFA780A
:1013B00007F10C0311461846FFF714FF00BF103762
:1013C000BD4680BD80B584B000AF78600B46FB7031
:1013D0007B68DA6907F10C0311461846FFF7F4FE43
:1013E000FA7807F10C0311461846FFF7FBFE00BF21
:1013F0001037BD4680BD80B400AF00BFBD4680BC85
:10140000704780B584B000AF78607868FFF76CFFF4
:10141000024607F10C0311461846FFF7D5FE78681F
:10142000FFF76DFF03461A4607F10C0311461846F5
:10143000FFF7D8FE00BF1037BD4680BD0248854685
:10144000FFF77AFEFEE7000000500020FEE780B4C0
:1014500083B000AF7860FEE780B483B000AF7860FF
:1014600039604FF0FF3318460C37BD4680BC7047DB
:1014700080B400AF01231846BD4680BC7047000011
:10148000062008B500F056F80120FFF7E0FF00BF86
:10149000830730B548D0541E002A3FD00346CAB255
:1014A00001E0013C3AD303F8012B9D07F9D1032C4D
:1014B0002DD9CDB245EA05250F2C45EA054536D98B
:1014C000A4F1100222F00F0C03F1200EE6444FEAC3
:1014D000121C03F1100242E9045542E90255103290
:1014E0007245F8D10CF1010214F00C0F03EB02125B
:1014F00004F00F0C13D0ACF1040323F00303043306
:10150000134442F8045B9342FBD10CF003042CB16A
:10151000CAB21C4403F8012B9C42FBD130BD644687
:101520001346002CF4D1F9E703461446BFE71A46E8
:10153000A446E0E738B5154B1F281D6820D8D5F81C
:10154000DC22044662B152F820304BB1012B15D099
:10155000591C0FD0002542F820509847284638BD26
:10156000284600F029F8224601462846BDE83840C2
:1015700000F00EB8162301202B6038BD002038BDC6
:1015800016234FF0FF302B6038BD00BF0000002055
:1015900070B50026074D0446084611462E60FFF739
:1015A0005BFF431C00D070BD2B68002BFBD0236079
:1015B00070BD00BF30040020FFF75ABF1810024072
:1015C0000400000000080140040801400808014030
:1015D0000C08014010080140140801401810024096
:1015E00008000000000C0140040C0140080C014000
:1015F0000C0C0140100C0140140C0140181002406A
:1016000010000000001001400410014008100140CB
:0C1610000C1001401010014014100140AB
:10161C0009970181B0B00884000000000397018194
:10162C00B0B008840000000008B10181B0B00084A3
:10163C000000000008B10181B0B00084000000007F
:10164C00E4EAFF7F0100000078EBFF7FB0A9028085
:10165C0010ECFF7FB0B0A88060ECFF7F01000000B1
:10166C006CECFF7FB0B0AA80A4ECFF7FAE71B280AF
:10167C0074EDFF7F0100000070EDFF7FAB3F388001
:10168C00D0EDFF7F01000000DCEDFF7FB0B0AA8041
:10169C0018EEFF7F01000000C8EEFF7FAA0DB2809C
:1016AC0040EFFF7FB0AF0880E0F1FF7F010000004A
:1016BC00E4F1FF7FAD3F028050F4FF7F010000009A
:1016CC002CF6FF7F0084048040F6FF7F01000000B1
:1016DC003CF6FF7FB0AD048018F9FF7F00840480D6
:1016EC0040F9FF7F44FFFF7F44F9FF7F48FFFF7FF6
:1016FC0050F9FF7F0100000034FAFF7F14FFFF7FD9
:10170C00BCFAFF7F01000000EEFCFF7F10FFFF7FA3
:08171C0020FDFF7F0100000029
:10172400080000200000000000000000F402002077
:101734005C030020C403002000000000000000003F
:101744000000000000000000000000000000000095
:101754000000000000000000000000000000000085
:101764000000000000000000000000000000000075
:101774000000000000000000000000000000000065
:101784000000000000000000000000000000000055
:101794000000000000000000000000000000000045
:1017A4000000000000000000000000000000000035
:1017B4000000000000000000000000000000000025
:1017C4000000000000000000000000000000000015
:1017D40001000000000000000E33CDAB34126DE6B2
:1017E400ECDE05000B00000000000000000000001B
:1017F40000000000000000000000000000000000E5
:1018040000000000000000000000000000000000D4
:1018140000000000000000000000000000000000C4
:1018240000000000000000000000000000000000B4
:040000050800143D9E
:00000001FF
